:020000040800F2
:10100000003C0020E9420008314300084D5E000822
:10101000515E0008555E0008595E0008000000009F
:101020000000000000000000000000005D5E0008FD
:10103000615E000800000000655E0008695E00084F
:1010400031430008314300083143000831430008B0
:10105000314300083143000831430008AD5F000808
:10106000000000006D5E000831430008955E000836
:10107000095F000831430008314300080000000008
:10108000895F00083143000800000000515F00083C
:10109000715F0008615F00083143000831430008B8
:1010A000314300083143000831430008855F0008E0
:1010B00031430008000000000000000000000000B4
:0C10C0003143000800000000314300082C
:1010CC0053B94AB9002908BF00281CBF4FF0FF31A3
:1010DC004FF0FF3000F00CB8ADF1080C6DE904CE08
:1010EC0004F070FFDDF804E0DDE9022304B0704782
:1010FC00704700BF10B5054C237833B9044B13B1BE
:10110C000448AFF300800123237010BD4408002075
:10111C0000000000F862000808B5034B1BB103493E
:10112C000348AFF3008008BD000000004808002011
:10113C00F862000830B5039C05468D4209DC13E0CB
:10114C00A34213D0B1EB6C0F0DD0754510DC0446E7
:10115C00724601EB020C181995424FEA6C0E4FEADD
:10116C006000EDDB204630BD9542FBDA184630BD01
:10117C000EF101010346E0E70346401A48BFC81AC6
:10118C00704700BF04494A6A80B292B24B6A9B1AFC
:10119C009BB28342FAD370470048014000F1FF3CF8
:1011AC0058B106494A6A92B24B6A9B1A9BB2B3F584
:1011BC007A7FF9D3BCF1010CF4D27047004801409E
:1011CC00002965D00139421E50FA81F1002027E038
:1011DC00C3B240B2002831DB5800C3B240B2002881
:1011EC0033DB5800C3B240B2002835DB5800C3B221
:1011FC0040B2002837DB5800C3B240B2002839DBBC
:10120C005800C3B240B200283BDB5B00D8B25BB2E3
:10121C004000002BB8BF80F007008A42C0B236D025
:10122C0012F8013F584010F0800F4FEA4000CFD029
:10123C0080F0070358B20028DBB2CDDA5B0083F0F4
:10124C00070358B20028DBB2CBDA5B0083F007034C
:10125C0058B20028DBB2C9DA5B0083F0070358B23E
:10126C000028DBB2C7DA5B0083F0070358B2002812
:10127C00DBB2C5DA5B0083F0070358B20028DBB29F
:10128C00C3DA580080F0070043B2C0B2C0E7704721
:10129C0008467047026803FB03F303EB430C22EA96
:1012AC000C0201FB03F313430360704703FB03F3CE
:1012BC0010B4046803FB01F103FB02F203EB4303DC
:1012CC0024EA03040C430460C16810BC21EA030344
:1012DC001343C360704700BFBFF34F8F0549064BE4
:1012EC00CA6802F4E0621343CB60BFF34F8F00BFB8
:1012FC00FDE700BF00ED00E00400FA0570B5B84C46
:10130C00B84D82B02968C022204603F093FE637862
:10131C00022B00F284804FF06413B34AC4F80930F6
:10132C000021C4F80520C4F80D100123E27D2A2AFF
:10133C0058D8101F052855D9032A58D90A3AD2B2C1
:10134C00202A59D9227EA2F10800C0B288285BD885
:10135C0002EB8202A548A64E02EB82029200A0FB91
:10136C0002023129A3484FEA9202B0FBF2F2F26278
:10137C00AA8050D803EB83035B0003F5C87189B2D4
:10138C00627E2B81A2F13200642898BF9B18A27E4A
:10139C00A98102EB82024FEAC20298BF9BB21432BF
:1013AC0002206B81EA8102F037FA6378002B4BD173
:1013BC00E8894FF4FA73009340F6B8324FF47A731D
:1013CC004FF49671FFF7B6FEA37CA5F85000002BE6
:1013DC0031D04FF47A73C4F8C830237D84F8CC3004
:1013EC0002B070BD1020032A84F8C000A6D8D20029
:1013FC00D2B202F10A00E07584F8C020227EA2F17C
:10140C000800C0B28828A3D9794841F28732312923
:10141C00EA80C262AED94FF4C8710023B0E7637B97
:10142C00092BA37989BF002203F1FF3103F1FF31AE
:10143C006273C9B27AE74FF4FA63C4F8C830237DFB
:10144C0084F8CC3002B070BDA07F0B2888BF05207B
:10145C0002F0E2F994F8213094F8202094F822104C
:10146C0094F82300A87503F26B335B006B8294F83D
:10147C002830053B142B84BF052384F8283094F8BE
:10148C00293002F27712013B5200092B2A8294F880
:10149C00252088BF0A2302F1FA0288BF84F829307C
:1014AC0094F82A302A83002284F827205A1E01F24D
:1014BC005E51082AA9825DD90A2384F82A3094F84F
:1014CC002B30617AE27AA07AA862463B462B84BF25
:1014DC00FF2384F82B3094F82C30013B632B9CBFFA
:1014EC00012384F8C13094F82D30013B092B84BFC3
:1014FC00052384F82D3094F82E3049005200092B26
:10150C006962EA6206D8042B0CD8DFE803F0038684
:10151C00820B7900384A0023012184F8C23084F808
:10152C00C33011706379092B3DD8092284F8C4208B
:10153C0085F8483085F8493085F84A30E8892F4AD3
:10154C00E17EB0F5967F3CBF002385F84B3020231D
:10155C00B3FBF1F1A2FB0032244B5209B2FBF1F2C6
:10156C00A5F84C20A3FB0023DB08B3FBF1F3A5F893
:10157C004E301EE7C3EB4312C3EB82035B006A8958
:10158C001B49473BDBB21A446A812A89AB761A4461
:10159C002A81AA8B1A44AA83AA891A44AA814A6C62
:1015AC0013434B648BE7002284F8C42095F8481051
:1015BC00A2F13332A2FB0323DA08B1EBD30F88BFBD
:1015CC0085F8482095F849309A4238BF85F849206B
:1015DC0095F84A309A4238BF85F84A20AEE700BFEA
:1015EC00CC03002000000020A001000AABAAAAAA8C
:1015FC00002C0140F0821E007D0600201F85EB515F
:10160C0009490A4A01230B700021117084F8C23079
:10161C0088E7012384F8C33084E7044A012384F863
:10162C00C23013707EE700BF7F0600207D060020CD
:10163C00024B03481A68C02103F0A0BC0000002034
:10164C00CC03002038B5294C94F85430012B3DD0F4
:10165C0094F85530264D5A1E12F0FF0224D084F80F
:10166C00552003F0010384F8523072B695F84331DB
:10167C003BB362B604F000F9D5F8C830D5F8442174
:10168C0003F5FA7393423CBF012384F8563094F867
:10169C005530002285F8402105EB430385F848219D
:1016AC00A26DA3F84A2138BD0123062284F85520E7
:1016BC0085F8423184F8523072B695F84331002BDC
:1016CC00D7D194F8550004F075F9D2E794F8552069
:1016DC00074D0132D2B2062A99BF84F8552002F088
:1016EC00010384F8553085F84231BCE70000002036
:1016FC00CC030020204AD36810B523F001031F4C03
:10170C00D360FFF79FFFB4F858211D49B4F85A0174
:10171C008B6D80B210FA82F203EB520394F82F20F7
:10172C005B088B65EAB98A6D94F8C03002FB03F351
:10173C00C3F38F138A6D91F85610A4F85E31C3EB86
:10174C00520292B2A4F8602199B1D4F8642142F209
:10175C000F739A4204D8D4F864310133C4F864315D
:10176C0010BD8A6D94F85C3102FB03F3C3F38F1345
:10177C00E0E704F079F8E8E700440140CC030020EE
:10178C000000002038B5184D95F85C3073B100247A
:10179C0003E095F85C30A34208DD04F051F895F8AD
:1017AC005230984204F10104F3D138BD72B604F002
:1017BC004FF80E4A0E4CB2F85A110E4B89B2A2F8E1
:1017CC005811606A002180B2A2F85A016162596214
:1017DC00B2F8602192B20132DA621961DA6842F031
:1017EC000102DA6062B638BD00000020CC03002094
:1017FC00001000400044014070B5B44CA37C82B092
:10180C00002B5CD094F8C230002B00F0BD80B04DA2
:10181C0094F82630002B00F0B081B4F86A319BB2FA
:10182C00B3F5836F17D3627C95F85430934200F074
:10183C00B48394F8433173B9B4F86A2195F85D30E8
:10184C0092B2C3EB42036FF400600022034484F8AD
:10185C006E21A4F86C31B4F86A319BB2B3F5836F86
:10186C001CD2B4F86A319BB22F2B17D9637C95F834
:10187C005410C3F10102914200F0028494F84331F8
:10188C0063B9B4F86A2195F85D3092B2C3EB4203A8
:10189C00313B002284F86E21A4F86C31B4F86A3123
:1018AC009BB22F2B10D894F843210023A4F86C3151
:1018BC0052B1012284F8433184F86E2104E0B4F86B
:1018CC006A31834DA4F86C3194F8742195F85E302C
:1018DC009A4203D9A37D002B40F0EC80E67CAEB39A
:1018EC00B4F86C011D2800F2D0800023A4F87631E6
:1018FC0094F8283003EB8303B0EB830F4FEA83019A
:10190C0080F2CF8094F87231002B40F0B78094F8BD
:10191C008031002B00F0B280E27CB4F876015023C9
:10192C002E2113FB02138342C0F2688194F8863196
:10193C00002B00F0E781013B042B00F2E081DFE893
:10194C0013F0DC01640361035E03DC0194F878316D
:10195C00002B00F0958094F87931002B40F0A28197
:10196C00D4F87C215B49D31781FB0212C3EB2233E1
:10197C009BB2B3F5006FA4F87631C0F0068240F24A
:10198C00FF73A4F87631BDE794F82620504D002A59
:10199C0000F0A280A87DB4F86A21400092B200F554
:1019AC007A718A421ADD667C95F85420B24200F0B6
:1019BC00D18294F843318BB9B4F86A0140F2FF72CA
:1019CC000023009284F86E3180B22F234FF4FA6218
:1019DC00FFF7B0FBAB7DA4F86C015800B4F86A318A
:1019EC00C0F57A729BB293421CDA637C95F8546012
:1019FC00C3F101018E4200F0BF8294F843318BB9E0
:101A0C00B4F86A012F230021009380B240F2FF73D7
:101A1C0084F86E11FFF78EFBAB7DA4F86C015800B7
:101A2C00C0F57A72B4F86A319BB2934211DBB4F808
:101A3C006A3100F57A709BB283420ADC94F8432138
:101A4C000023A4F86C3122B1012284F8433184F8CC
:101A5C006E2194F8C230002B3FF436AFD8E6E17C0F
:101A6C002E22502313FB0123B4F876219342BFF6A8
:101A7C005DAF94F84361002E00F0B68102B070BDEA
:101A8C00B4F86C31A4F876313CE71E283FF430AF43
:101A9C0094F8282002EB8202920090421146C0F288
:101AAC00208140F2FF720092A023FFF743FBA4F8C1
:101ABC00760127E703F040FF03F0CAFE00226623FD
:101ACC00A4F8762184F874311CE700BFCC03002005
:101ADC0000000020AD8BDB68AB7DB4F86A215B00A5
:101AEC0092B203F57A718A4214DD637C95F8542026
:101AFC009A4200F01282B4F86A0140F2FF7300932C
:101B0C0080B22F234FF4FA62FFF714FBAB7DA4F8DD
:101B1C006C015B00B4F86A11C3F57A7289B2914218
:101B2C0017DA637C95F85400C3F10101884200F088
:101B3C004B82B4F86A012F23009380B240F2FF73FA
:101B4C000021FFF7F7FAAB7DA4F86C015B00C3F53D
:101B5C007A72B4F86A1189B29142FFF67AAFB4F88E
:101B6C006A2103F57A7392B29A423FF772AF00235F
:101B7C00A4F86C3184F873316BE7B4F86A319BB21A
:101B8C00B3F5836F11D3637C95F854209A4200F01F
:101B9C00A981B4F86A2195F85D3092B2C3EB420387
:101BAC006FF400610B44A4F86C31B4F86A319BB249
:101BBC00B3F5836F16D2B4F86A319BB22F2B11D9BF
:101BCC00637C95F85410C3F10102914200F04182FC
:101BDC00B4F86A2195F85D3092B2C3EB4203313B05
:101BEC00A4F86C31B4F86A319BB22F2B3FF66CAE73
:101BFC000023A4F86C3184F8733165E694F86831ED
:101C0C00002B00F00081002A00F0F1802B894FF4AA
:101C1C00FA620092283340F2FF728921FFF78AFAA8
:101C2C00A4F8840194F82630002B7FF418AFE07CE4
:101C3C00B4F8761184F8433150222E2312FB003372
:101C4C0099427FF773AE2E2907D9607FD4F86421AF
:101C5C001E230341934200F22281B4F88431B5F87B
:101C6C0092209A423CBFA4F88421134694F8C120D8
:101C7C0032B1B5F994209342C4BF93B2A4F8843125
:101C8C00D4F89021002A7FF7F9AE2F297FF6F6AE13
:101C9C00CB48D11780FB0202C1EB22321344A4F8CB
:101CAC008431EBE6D5E91832B4F86C0100922F219F
:101CBC0040F2FF72FFF73EFAB4F86C21C14B93FB74
:101CCC00F0F3E07E2E2A4FEA500093FBF0F3A4F8D9
:101CDC007A313FF645AEA4F87661AE66C4F87C6105
:101CEC0010E6A02300931E212F23FFF723FA0346AF
:101CFC00A4F87631B4F86C01FAE501F0E5FE0023A6
:101D0C0084F88631237D002B46D194F86821A4F801
:101D1C008431002A00F0D28094F82630002B3FF456
:101D2C00A8AE94F84331002B5ED094F8C230002B4F
:101D3C0000F0C181B4F86A319BB2B3F5836F0ED257
:101D4C00B4F86A319BB22F2B09D9B4F86A2195F8F3
:101D5C005D3092B2C3EB4203313BA4F88831B4F846
:101D6C006A319BB2B3F5836F80F0CA81B4F88831C5
:101D7C0040F2CE72934240F2B08103F0C5FF94F86A
:101D8C004361002E7FF47AAE2EE02F2B3FF6BAADD6
:101D9C003023A4F87631B5E594F86831002B45D1A1
:101DAC00267FC4F86431012285F8562084F841312D
:101DBC00002E39D0E17C002939D1012E37D194F88D
:101DCC00293003EB830303EB8303DB009BB240F26C
:101DDC00CE729342A4F8883140F2A08103F094FFB4
:101DEC00E17C94F8436124E0B4F876112BE74FF4CE
:101DFC00FA6200922B8940F2FF722F21FFF79AF9B9
:101E0C00A4F884010EE703F097FD95F85630002BEB
:101E1C0000F018816B89E27CB4F87601A4F8823169
:101E2C00012184F86811EEE603F086FDE17C94F85C
:101E3C00436195F85530013BC3EB0312B5F8903074
:101E4C0003EB82031AB2B2F5B47F9BB2A6BFA3F523
:101E5C00B4739BB2A4F88A2103F1770212B2A8BF23
:101E6C00A4F88A31B2F5B47FA8BFA3F1F102A4F8AB
:101E7C008C2103F1EF0212B2B2F5B47FA6BF793B0D
:101E8C00A4F88E31A4F88E210023012908BF84F810
:101E9C007211A4F88431002E7FF4F0ADA4E7B4F8ED
:101EAC0084316A8993423CBFA4F884211346AA89E1
:101EBC009A423CBFA4F884211346D0E6237FC4F891
:101ECC006421012185F85610002B40F0EA8094F82B
:101EDC004331002B00F0048194F82630002B7FF462
:101EEC0024AFCBE5AA6DB5F85010914280F0A280DA
:101EFC00B4F8702192B2C72A00F29C80C3F101039E
:101F0C000026012285F85430C4F8646185F8562007
:101F1C0003F09EFC84F873613BE6AA6DB5F85000A3
:101F2C0090427ED2B4F8702192B2C72A79D8C3F10C
:101F3C0001030026012285F85430C4F8646185F849
:101F4C00562003F085FCA97D84F87361490001F5E6
:101F5C007A71D0E594F86E61A4F86C314FF0010CF5
:101F6C0084F843C1002E3FF439ADACEB020285F886
:101F7C00542084F843311FE594F86E6100214FF032
:101F8C00010CA4F86C1184F843C1002E3FF44AAD47
:101F9C0085F8543084F8431132E5012184F843115B
:101FAC0094F86E110022A4F86C2100293FF453AC74
:101FBC00C3F1010385F8543084F843213CE400BF9D
:101FCC00AD8BDB6800879303A96DB5F85000884290
:101FDC001ED2B4F8701189B2C72919D80122002673
:101FEC0085F85620C4F8646185F8543003F030FC51
:101FFC00AA7D84F873615200C2F57A7299E501F0FA
:10200C00F5FC7CE601F0C0FD79E601F08DFD76E68D
:10201C0094F872110029E1D14FF47A73A4F86A3163
:10202C0087E594F87221002A81D14FF47A73A4F8D1
:10203C006A3160E594F87221002A7FF45FAFA4F84E
:10204C006A21A6E594F86831002B4CD003F00CFC07
:10205C00E0E6AA6DB5F85010914225D2B4F8702183
:10206C0092B2C72A20D800260122C4F8646185F8F0
:10207C00562085F8543003F0EBFB84F87361A7E528
:10208C00012184F8431194F86E110022A4F86C21FC
:10209C0000293FF403AC85F8543084F84321FFF752
:1020AC00F0BB03F031FE37E694F87221002ADAD146
:1020BC00A4F86A218CE5B4F86A114FF47A7089B2ED
:1020CC00FFF75AF894F8C22000F57A739BB2A4F883
:1020DC008831002A3FF44CAE2CE603F0F5FBC8E443
:1020EC0003F02AFC18E6FFF7ADFA0F4B42F2107121
:1020FC0041F28832A9655A62012384F86831A5E758
:10210C00B4F86A2195F85D3092B2C3EB42036FF4D8
:10211C00006213449BB2A4F8883129E603F0D4FB87
:10212C00E17C84F8436184E60010004010B5104C4B
:10213C0094F89431012B15D094F89431022B03D0E0
:10214C00BDE81040FFF758BBD4F89801B0F5803FBC
:10215C00ACBF4FF6FF7080B201F0A2FF002384F8F1
:10216C00943110BD01F04AFD002384F89431E3E76B
:10217C00CC030020F8B54F4E4F4F96F85410002961
:10218C0077D1B7F88A3101331AB2B7F88C310133F1
:10219C00B2F5B47F1BB2B2BFA7F88A21A7F88A1197
:1021AC000A46B3F5B47FA8BF0023A7F88C31B7F863
:1021BC008E3101331BB2B3F5B47F77DAA7F88E31C9
:1021CC0006EB4202B6F86813B2F99830B0883B4D72
:1021DC003B4C0B4400FB03F385FB0312D81797F819
:1021EC002D30C0EBE21003FB00F0C31784FB002082
:1021FC00C3EBA00080B203F07BF9B7F98C31B6F8D1
:10220C00680306EB4303B3F9982097F82D3002448A
:10221C00B08800FB02F285FB0201D017C0EBE11085
:10222C0003FB00F084FB0023C017C0EBA30080B2BB
:10223C0003F064F9B7F98E31B6F8680397F82D20DE
:10224C0006EB4303B3F998300344B08800FB03F367
:10225C0085FB0315D817C0EBE51002FB00F084FBDF
:10226C000034C017C0EBA40080B2BDE8F84003F006
:10227C004BB9B7F88A21B7F88C31013A12B2013B4D
:10228C001BB2002AB8BF40F26712002BB8BF40F255
:10229C006713A7F88C31B7F88E31A7F88A21013B68
:1022AC001BB2002BB8BF40F2671387E70023A7F8D7
:1022BC008E3185E700000020CC030020D34D621046
:1022CC0067666666294938B54B6A294C294D9BB21D
:1022DC000022A4F85A314A62B4F85A31AA6D02EBC2
:1022EC00420212FA83F39B08AB65AA6D94F8C030D6
:1022FC0002FB03F3AA6DC3F38F13C3EB520292B22A
:10230C00A4F85E31A4F8602103E0D4F86431042B06
:10231C0005D94A6AB4F860319BB29A42F5D3FFF7FB
:10232C0091F9002284F84021D4F86431617F84F85B
:10233C0041210133C4F8643194F826300B4305D1A4
:10234C00AA6DD4F8C8309A4208D338BDD4F8643199
:10235C00132BFAD9AB6DB3F5FA6FF6D8002385F8C9
:10236C005630BDE8384003F07FBA00BF0010004083
:10237C00CC03002000000020F8B5A44CB4F89C213C
:10238C00B4F89E31B4F88401A4F870010132013321
:10239C00B4F8A01194F8A401A4F89C21A4F89E31DF
:1023AC00B4F8A22194F88031013101320343A4F82E
:1023BC00A011A4F8A22141D194F8A521002A3DD066
:1023CC00B4F86C51002D40F04982B4F8A6310133B9
:1023DC009BB244F620618B42A4F8A6312ED9B4F8F6
:1023EC00A8311E2B40F2A08294F8243001218B429C
:1023FC0084F8801140F09D82B4F8AA1184484B08EF
:10240C00A0FB0323DB09B1F5B97F84F8A4310DD30C
:10241C00804F4AF6AA2601F021FB6420FEF7BEFE8F
:10242C0094F8A4313E600135AB42F4DC94F8C3302F
:10243C0094F8C220134301D184F82630E17F81B196
:10244C00754BB4F8AC2193F86A33013B01320B4461
:10245C0092B203EB8303B2EB830FA4F8AC2100F32D
:10246C00BD8094F87261002E40F085806A4D94F81E
:10247C00681195F85630002B40F08380B4F8A231E7
:10248C00142B11D9012294F8C13084F8AF21002209
:10249C00A4F8A221002B40F0C580637F002B00F034
:1024AC00D481002940F00D8194F8C430B4F8A021F7
:1024BC009A4237D9D4F864310022952BA4F8A02184
:1024CC00B4F8822100F29A8195F84830DBB285F895
:1024DC009833B4F8700180B2801A984203DDD0189A
:1024EC0080B2A4F87001B4F8700180B2101A834263
:1024FC001CDAD31A9BB2A4F8703194F88031CBB9A2
:10250C00D9B1B4F876312E2B17D8637B012B00F0A0
:10251C00EC81022B40F08281012384F8CC3084F8CA
:10252C00B23112E0B4F88231A4F8703194F88031F1
:10253C00002BE5D0002940F04E8194F84331002B5C
:10254C0053D1207F022800F08C81B4F87031EA88D6
:10255C0032499BB202FB03F3A1FB0313C3F3CF136A
:10256C00A4F8B4312E49B4F87001A4F88201C1E981
:10257C000D33CA62CB63B4F8B8310133A4F8B83167
:10258C00F8BD00293FF47AAF03F062F903F058F973
:10259C0095F85230002B40F07B81002840F09E8152
:1025AC0094F8413195F853200133DBB29A4284F808
:1025BC00413138BF84F8400194F848315BB995F843
:1025CC005230002B00F0A38194F8403195F86B2326
:1025DC009A42C0F0A38194F868114FE701220023BE
:1025EC0084F8AE21A4F8AC313BE7EA88B4F8883122
:1025FC000A4902FB03F381FB0301DB17A3EBE11395
:10260C0013449BB2A4F8B431ACE700BFCC03002058
:10261C00B9D31FB10030004000000020D34D621030
:10262C00002C014000293FF43FAF94F82C20B4F962
:10263C00B031A86AEE6A02EB820202EB8202A3EBD3
:10264C00C2022B6B2A6200FB02302B6C286398426F
:10265C00C4BF18462B635B428342C4BF18462B632E
:10266C00AB6BAA63D31A06FB03F36E6A6B6306FBB0
:10267C0002336A6C03449342EB63C4BF1346EA63B0
:10268C0052429A42C4BF1346EA63AD4A82FB03022C
:10269C00DB17C3EB2233B5F89420D31A2A891BB26B
:1026AC009342A5F89430BCBF13B2A5F89430B3F59F
:1026BC00FA6F03DD4FF4FA63A5F89430637F002BB7
:1026CC0042D0AB6DB5F86E23D5F87803D5F87C63A2
:1026DC009A1AD5F88033C5F8702300FB0230D5F870
:1026EC009033C5F880039842C4BF1846C5F88033B0
:1026FC005B428342C4BF1846C5F88033D5F8883393
:10270C00C5F88823D31A06FB03F3D5F87463C5F810
:10271C00843306FB0233D5F8942303449342C5F863
:10272C008C33C4BF1346C5F88C2352429A42C4BFA3
:10273C001346C5F88C23D4F890211344814A934254
:10274C0040F3D980C4F8902194F87831002B3FF4F1
:10275C00ABAED4F89831B4F87A21286F6E6F9A1A10
:10276C00AB6FAA6600FB0230D5F88830A867984298
:10277C00C4BF1846AB675B428342C4BF1846AB6705
:10278C00D5F88030C5F88020D31A06FB03F3EE6E23
:10279C00EB6706FB0233D5F88C2003449342C5F853
:1027AC008430C4BF1346C5F8842052429A42C4BF39
:1027BC001346C5F88420D4F87C211344624A934212
:1027CC0040F39F80C4F87C21D4F86431632B9CBF08
:1027DC000023AB6768E6B4F876312F2B7FF693AE07
:1027EC0094F8B231002B62D00023217D84F8B231F1
:1027FC00EA88B4F8B43184F8CC10B3E6952A7FF6A5
:10280C0063AED4F84431B3F5FA7F8CBF95F84930F8
:10281C0095F84A30DBB285F898335AE6DA1E062A68
:10282C003FF693AE94F8B221002A4FD094F8B6310B
:10283C003BB994F8B221012A04BFC4F8643184F87E
:10284C006831012384F8B2317FE694F87831002B9B
:10285C003FF42AAE00293FF427AE7AE7A4F8A6315C
:10286C00ECE594F88031002B3FF46FAE03F0A2F846
:10287C00EA88237B354902FB03F3A1FB0313DB0935
:10288C0003EB83035B0023339BB2A4F8B43169E6FA
:10289C0020B394F8413195F853200133DBB29A42BE
:1028AC0084F84131BFF488AE84F8406184E6B4F812
:1028BC007031EA8825499BB202FB03F3A1FB031399
:1028CC00DB0901339BB2A4F8B4314BE6023B42F274
:1028DC00107284F8B631A4F89C21B2E794F8403118
:1028EC000133DBB284F8403166E6002284F8CC2058
:1028FC0084F8B23129E6002B1EDC0023C4F8903199
:10290C0022E7002BB8BF0023C4F87C315CE794F8B5
:10291C00403195F86C239A42BFF45DAE012384F8E4
:10292C004831FFF7CFFC56E684F8A551A4F8A65120
:10293C0084E501F093F879E5C4F8903104E700BF21
:10294C00AD8BDB6860E31600F0583801D34D621094
:10295C002DE9F04F85B002F03DFC4FF47063C34A93
:10296C00D3F8E010914205D1C14AD3F8E41091425A
:10297C0000F03A84BF4DC04C02F008FD02F0DAFDC5
:10298C00FEF7BCFCE378022B03D12379152B00F066
:10299C00638441F202510423A4F803102A68B64858
:1029AC006370C02102F0EAFA637C227DA988E98079
:1029BC00013B18BF012385F8543002B9E27494F836
:1029CC002630BBB12889B5F89A136B8900220126F1
:1029DC004FF47A77323032313233AF832881A5F815
:1029EC009A1385F84B60C4F81260627384F8CC209B
:1029FC00A2756B8100F0B6FF0023A4F8A83102F099
:102A0C0027FC9E4B4AF6AA221A6002F087FE94F825
:102A1C00793113B1012384F8783102F009FF974F13
:102A2C00DFF85C92DFF85C82DFF85CA24AF6AA263B
:102A3C00B4F84E11B4F84C31B4F85021B4F852013A
:102A4C000B441344B4F85411B4F8562103440B440A
:102A5C001344D4F8642104335B10042AC4F898316D
:102A6C0000F20382A37C002B00F08382042385F800
:102A7C006B3385F86C33637D3E60012B00F0FF8176
:102A8C00022B00F00982B4F8B83142F21072934272
:102A9C000BD994F8802102F0FF01002A40F08B83BF
:102AAC0049F64042934200F2BD83B4F89C2144F6AF
:102ABC0020639A4216D9B4F9B031D4F8BC211B0466
:102ACC0089FB03011944DB17C3EB212394F8B611DE
:102ADC0013440022C4F8BC31A4F89C2111B1013973
:102AEC0084F8B611D4F86431B3F57A7F40F20182E0
:102AFC000022B4F86C3184F87421D4F86421642A6F
:102B0C0002D9C72B40F23B82E27C12B19F2B40F2E0
:102B1C00FF8194F8C021002A00F0E481B3F5C87F4E
:102B2C00C0F0FD81D4F8982194F8421188FB02037F
:102B3C00A3EBE273C4F8443121B1D4F864310A2B0D
:102B4C0000F2608294F8C931002B00F0A780AB6DC5
:102B5C00322B40F2A3804D4B1022002183F80B1333
:102B6C0083F8152383F80C2394F8AE3103F0FF0B94
:102B7C00002B40F0A38094F8CE31002B40F0038260
:102B8C0094F8AFB1BBF1010F00F0B38094F872313F
:102B9C004FF0000B84F8DFB1002B40F02E8194F83D
:102BAC0068313B4AD4F898113A4892FBF1F213FB86
:102BBC0002F39BB2A0FB032095F84B20A4F8CC3178
:102BCC00C008A4F8E001002A40F003824FF4FA6335
:102BDC00A5F89230B4F8CA3194F82B101BB28B4282
:102BEC0000F3E781D4F86431632B00F2B581AB6D4F
:102BFC00B3F5FA7F40F2B0810C2385F85C30AB6DF5
:102C0C00312B9CBF022385F85C3094F82F30002BBD
:102C1C0040F0C181204A526A4AF6C8739A427FF644
:102C2C0007AF94F868314FF0000B84F8B2B1002B69
:102C3C003FF4FEAE94F87431013384F87431237D83
:102C4C0084F8CC3002F004FEB4F8763101222F2B3C
:102C5C0085F8562004D841F2883384F868B1AB6506
:102C6C000023C4F86431FFF72DFBE1E6DAE32559C4
:102C7C00D963B84E00000020CC0300200030004087
:102C8C00B7600BB6565555551F85EB5100E100E06A
:102C9C00C0270900CDCCCCCC00100040D34B002277
:102CAC00102183F80B1383F8152383F80C2394F865
:102CBC00AE3103F0FF0B002B3FF45DAFB4F8CA014B
:102CCC00B4F9BE31B4F8CC21B4F8AA1100929BB27D
:102CDC00B4F8B02140B200F067FD0A2002F0A6FC67
:102CEC0094F8AFB10023BBF1010F84F8AE317FF43F
:102CFC004DAF02F08DF85946BD4801F0A7FEB4F86F
:102D0C00D00102F025F9B4F8D421BA4BA4F8D201C1
:102D1C0040F6E44101FB02F2A3FB0213D21A03EBCF
:102D2C005203B5F89C23A4F8CA01DB0A02FB03F397
:102D3C00AAFB0313B4F8AA2194F8D410B4F83C01FC
:102D4C0004EB410CC2EBC20202EB53120131D4F87A
:102D5C00D030BCF8D8E0ACF8D800C9B23129034463
:102D6C0088BF0021A3EB0E0384F8D410C4F8D03034
:102D7C00AAFB03131B0940F6E441A4F83E319BB2B5
:102D8C00C4F8D83101FB03F39B49A1FB031343F3B4
:102D9C00CF13002BB8BF0023A4F8B03194F8243023
:102DAC00D210012BA4F8AA2100F09981022B0ED18C
:102DBC00237A03EB830392B203EB8303B2EB430F4F
:102DCC0080F29681B4F8DC310133A4F8DC3194F84C
:102DDC0072318A48B4F8DC1142F2107200FB032203
:102DEC00914200F38D8100224FF0000B84F8AF214B
:102DFC0084F8DFB1002B3FF4D2AEB4F87631302B2F
:102E0C0040F2918094F88021002A00F08C80313BB4
:102E1C000122572B84F8AF2100F2918194F8E23112
:102E2C00002B40F0EE81FFF7A5F994F81BE0B4F805
:102E3C0076017822302141F6583340F22A3CB3FB1C
:102E4C00FEF3BCFBFEFCCDF800C0FEF773F9A5F851
:102E5C00A00380B2FEF796F9B5F8A0234FF41673D1
:102E6C00B3FBF2F3A4F8CC31E2E5032385F86B3322
:102E7C0085F86C33637D3E60012B7FF401AEAB882B
:102E8C00A86D0093C8225B086021FEF753F9637D9F
:102E9C00E880022B7FF4F7ADD4F84431F92B0AD833
:102EAC00D4F84431642B06D9D4F8443103EB4302F3
:102EBC0003EB8203EB80D4F84431632B05D8D4F8B0
:102ECC00443113B140F21453EB80D4F84431F92B54
:102EDC0004D8D4F84431002B7FF4D5AD40F6B2437E
:102EEC00EB80D0E5952B94BF64230A2385F85E30E4
:102EFC0018E6B4F86C31002B7FF4FFADD4F86421E4
:102F0C0084F87431642A3AD8E27C002A3FF401AE8A
:102F1C0094F8C021002184F87411002AE2D0002317
:102F2C0084F87431FEE594F81CB00122002393451B
:102F3C0084F8683184F8E22100F0A180BBF1020F23
:102F4C0000F0B9802E4AC2E90D33D36302F0F4FCD1
:102F5C000023A4F8CC316BE50C230093D4F8440186
:102F6C0003234FF4FA726421FEF7E4F885F85C0051
:102F7C0045E6062385F86B3385F86C337BE5002238
:102F8C0084F87421C0E500F02BFC312002F04EFBDC
:102F9C0084F8CEB1F4E5B4F870011723009380B235
:102FAC000D234FF4FA626421FEF7C4F884F85C0137
:102FBC0030E6B5F89E33B4F8CA010122009200B293
:102FCC0001F10A025B080A39FEF7B4F8A5F8920081
:102FDC0008E6B5F89E330093AB8BB5F84E20B5F8E8
:102FEC004C10FEF7A7F8A5F89200F3E500E100E01D
:102FFC000024014001011000FF04EC4F54D9FFFFE5
:10300C00002C0140D4F84411D4F8C401FEF7B4F8F4
:10301C00D4F84431B0EB530F24D9D4F84431B3F580
:10302C00FA6F1FD294F8C831013384F8C831A37CED
:10303C000022C4F86421EBB9B4F876312F2B19D9DE
:10304C00002384F86831D4F86431642B84BF41F2D6
:10305C008833C4F844316B8901225B0885F856200B
:10306C00A4F88231D4F84431C4F8C431002284F875
:10307C00422167E5AB6DB3F57A7FE4D9E0E794F8CC
:10308C002930EA887B4903EB830303EB8303DB00E2
:10309C009BB2A4F8883102FB03F381FB0301DB171D
:1030AC00A3EBE11313449BB2632BA4F8B4313BD8CC
:1030BC0002F02AFE4CE7584602F07CFCEA88237B9F
:1030CC0002FB03F36B4AA2FB0323DB0903EB830331
:1030DC00694A5B002333C2E90D33D36338E794F8B4
:1030EC00A431298B92B201FB03F393423FF76AAEF2
:1030FC0094F8DE31002B7FF46AAEA4F8DC3166E67E
:10310C004FF0000B012384F8DE31A4F876B102F005
:10311C0013FC02F09DFB94F8723184F868B1A4F8AA
:10312C00A8B184F880B15EE602F0CEFB524BB4F845
:10313C00B42184F843B1C3E90D22DA6308E784F8BB
:10314C00E221FFF717F8B4F87631C82B04D95023D5
:10315C00A4F88AB1A5F8A033B5F8A003FEF712F8CD
:10316C00B4F98A31002B7FF463AC84F8723184F8A3
:10317C004331424942F22833AB650122C4F8443151
:10318C0085F8562084F86821D4F844214B62C4F8A1
:10319C00C421637F95F8A22385F855201422C4F826
:1031AC0064211BB1B5F89A33A4F88231FEF74AFAC0
:1031BC0002F0B0F93CE402F0BFFB2F4B002584F881
:1031CC0080515D6384F8A5519D63DD63A4F876514D
:1031DC00A4F8A85102F0A6F929484FF480722946A8
:1031EC0003F07CF8FEF778F893F8EC30254D2B2B98
:1031FC003CD0352B36D01F2B04BF234B2B60FFF755
:10320C00BABB224AD36823F00103D36002F020FB3F
:10321C00194BC3E90DBBC3F83CB002F0B3FD84F805
:10322C00E2B100E6039102F087FB134B039984F89B
:10323C008011596384F8A5119963D963A4F87611A8
:10324C00A4F8A811039102F06DF903990C484FF4FE
:10325C00807203F043F8C5E76378032B3FF6A4AB09
:10326C00FFF797BB0A4B2B60FFF785BB094B2B6015
:10327C00FFF781BBD34D6210002C014000100040C1
:10328C004007002000000020007C000800440140A2
:10329C0000F8000800F80108F0B5654CD4E900020C
:1032AC00101A6FF4487240F2765382189A4283B027
:1032BC002BD8604E604D002333802B78002B46D0EA
:1032CC006B780146ABB9AB78002B00F09880A888DE
:1032DC005A4F01333988AB70FDF74EFF322870D945
:1032EC0000223B882A706A78AB8052B1D4E9003155
:1032FC00C91A40F2E143994257D9AB794B2B00F2F2
:10330C0081800023A868338004E04B494C4B8868CB
:10331C0000221A804B494C4A0B8812689BB2C31A84
:10332C0093420B8805DD12FA83F292B20A8003B045
:10333C00F0BD9BB21B1A9A4205DA0B889A1A92B20C
:10334C000A8003B0F0BD80B2088003B0F0BD3F4AE4
:10335C00947C74B13E4A128890421AD83D494FF47D
:10336C007A7409880094FDF7E5FEA8600023338089
:10337C00D0E7324B1A88374B198840F2FF73009311
:10338C002F23FDF7D7FE3028CEBFA860AC602046B7
:10339C00ECE72A4B511C1A884FF4FA63009340F265
:1033AC00E933FDF7C7FEA860E0E72A48AB7902884D
:1033BC00C2EBC20201331144DBB2C908AB7101800C
:1033CC009CE73B886268C3EBC3012368D31AAA78D5
:1033DC000B44C3F3CF03322A3B8084D9193B9BB2F5
:1033EC003B80A3F2D663194A03EBD3735B1082F8CC
:1033FC00213001236B7000F067FB3B8873E780B2D0
:10340C00A88065E7134A1149138819339BB21380BE
:10341C00A3F2EE2303EBD3735B10002481F820306E
:10342C002C70FEF705F9AC7100F07EFB69E700BF6C
:10343C004007002084050020DC050020120000203D
:10344C007405002036050020B8030020CC030020B2
:10345C001400002010000020694B2DE9F041694F49
:10346C001968002544F6206E1A46A7F804E003F10B
:10347C007804AC462E4652F8043F9942A3EB010067
:10348C00194606D070453CBF1FFA80FE01268444C5
:10349C0001259442EFD1002E4ED0A7F804E05A48F3
:1034AC005A496DB303784FEA5C15012BCD6009D0F6
:1034BC00574A1478012C10D013B91478002C3ED034
:1034CC00BDE8F0810EF1FF33022B70D83B2D75D97E
:1034DC004F4A1478012CE3B2F2D1AEF1C904A4B274
:1034EC0044F65656B442E7D8DFF828C14A4E0124B8
:1034FC001470347077248CF800400224BC71DBE724
:10350C000378CD60012BD3D10EF1FF33022B55D9AB
:10351C00AEF10403042BDBD83F4A3D4C012313705E
:10352C003C4A0370137003233C4A20780B74072029
:10353C0020231070BB71C3E744F6206EAFE70EF189
:10354C00FF34022C0ED83B2DBAD8324A334C1370B0
:10355C000123314A0B740E21217020210370B971A3
:10356C001370ADE7AEF10403042B0FD8632DA7D86D
:10357C00284A2A4C0123137003220A740721264A75
:10358C00217020210370B971137099E7AEF1C90352
:10359C009BB244F656518B4292D801231D481370AE
:1035AC001D49772202700222BA710B7088E7AEF1C6
:1035BC000403042B8CD8632D8AD8ADE7164E144A1D
:1035CC00DFF850C00123337014780B744FF00008EF
:1035DC000370124B8CF800804FF00E0883F80080BB
:1035EC00012C4FF02003BB71E3B27FF469AFAEF155
:1035FC00C904A4B244F6565844457FF678AF5FE749
:10360C0040070020B80300208E040020DC050020B9
:10361C008F040020C803002071050020C90300207E
:10362C0070B5534C237813B1524B1B783BB9524BAA
:10363C001A78002A6FD01B78012B0AD070BD4F4B23
:10364C001B78002B54D002F069F84D4B02221A70F3
:10365C0070BD484B1B78002B50D14A4D2B78012B59
:10366C0075D0494B1B78012B68D02378002BE5D102
:10367C002B78EBB1454A537C072B19D84449098860
:10368C00052915D94348C16F00680133091A5069DF
:10369C00DBB210FA81F1082B5374516108D1C1F3DC
:1036AC00CF033D48C1F3CF115C18591A0481118323
:1036BC003A4C2088002838D0394BDD79002DBDD10B
:1036CC00334A40F2DC5398421580B7D92F4E718B98
:1036DC00FDF752FD322848D8337F0133DBB2322B51
:1036EC00337702D97578002D3BD02388738370BD56
:1036FC0002F04EF8224B01221A7070BD1F4B1B7842
:10370C007BB1284B188800F0CBFC00F077FABDE8B1
:10371C00704002F003B8FFF79FFEBDE8704001F067
:10372C00FDBFBDE8704002F033B8184B1B78002B7E
:10373C00C2D1174A13880133138070BD02F072F89E
:10374C00154B48B103229A7101F0E8FF8DE700F0A8
:10375C0055FA01F0E3FF84E702229A71FFF79CFD12
:10376C00F2E700F011FA012333703577BDE700BFA3
:10377C004C05002095050020710500203C07002019
:10378C00600500208E0400208F040020DC05002042
:10379C007405002040070020B803002038050020E5
:1037AC00CC0300206405002010B50C4CBDF808C0FB
:1037BC00A170090A6170110AE170190A2070227156
:1037CC0061714FEA1C2209212046A371E27184F831
:1037DC0008C0FDF7F5FC607210BD00BFFC050020B1
:1037EC0070B50B4C0B4E04F13005B6462068616881
:1037FC00A268E368F446ACE80F001034AC42E6462D
:10380C00F4D104483021FDF7DBFC86F8300070BDA4
:10381C00CC030020FC0500200B28034B28BF0B20F9
:10382C0000EB4000187070472D0600202DE9F84F72
:10383C00424D434EDFF80C81032002F0BBF82C46BE
:10384C0005F17C094FF0000A4AF6AA2732E0002B5A
:10385C0054D04FF47A614FF0F70C1CFB031C3A491F
:10386C0009238B62394BB3FBFCFE394BB3FBFEF3E4
:10387C009AB2384BCA621B7802FB03F3364A82FBBE
:10388C000323DB0AC1E90D33CB63FF2313FB0A00CF
:10389C00324B0CFB00F0A3FB0030C0F34F30FDF7B4
:1038AC007DFC4FF0000A95F83300EF2817D802344E
:1038BC00A14523D094F8340094F83530C8F8007042
:1038CC00002131800028C2D0FF2826D13BB395F8C7
:1038DC0033000AF10102EF285FFA82FAE7D91A4B9A
:1038EC00C0F1FF00002100EB8000C3E90D11D9638A
:1038FC0040000234FDF752FCA145DBD102F01CF86C
:10390C001748114A00880F4900239362D0624AF687
:10391C00AA2233800A60BDE8F88F002B99D10A499E
:10392C004FF0000B4FF0FF0C0CFB0A00C1E90DBB74
:10393C00C1F83CB0FDF732FCDA46B4E7CC0300200A
:10394C008405002000300040002C01408096980037
:10395C00001BB7002D06002057EAE0685172A6BE86
:10396C000400002010B572B6032002F023F81A4BA5
:10397C0093F83030FF2B07D0FFF758FF174A184B3E
:10398C001288DA6262B610BD154C164B41F28732C2
:10399C00E2621B78E363C4E90D33032002F00AF8FA
:1039AC003723A362C820FDF7F9FB052002F002F8CB
:1039BC002823A362C820FDF7F1FB062001F0FAFFD3
:1039CC001923A362C820FDF7E9FB01F0B5FF064AF5
:1039DC000023A3621380D1E7CC0300200400002055
:1039EC00002C01402D0600208405002070B5164CDB
:1039FC0041F28733E36272B6144D154B3C224AF602
:103A0C00AA262E60A2621B78E363C4E90D33012061
:103A1C0001F0D0FF4B20FDF7C1FB5023A3624B20DC
:103A2C00FDF7BCFB5A23A3624B202E60FDF7B6FBBF
:103A3C0001F082FF074A084912880023A3620B8019
:103A4C00E26262B670BD00BF002C01400030004045
:103A5C002D060020040000208405002010B572B64D
:103A6C00144C154A154B4AF6AA2141F28730E062F4
:103A7C0011605022A2621B78E363C4E90D3303206A
:103A8C0001F098FF6420FDF789FB4623A3626420B4
:103A9C00FDF784FB2823A3626420FDF77FFB01F074
:103AAC004BFF074A074912880023A3620B80E2628E
:103ABC0062B610BD002C0140003000402D060020E5
:103ACC00040000208405002010B5124C124B41F26A
:103ADC0087313222E162A2621B78E363C4E90D33C1
:103AEC00022001F067FF9620FDF758FB0B4A4AF6BF
:103AFC00AA211E2311609620A362FDF74FFB01F053
:103B0C001BFF074A074912880023A3620B80E2625D
:103B1C0010BD00BF002C01402D06002000300040DD
:103B2C00040000208405002010B5124C124B41F209
:103B3C0087312822E162A2621B78E363C4E90D336A
:103B4C00022001F037FF9620FDF728FB0B4A4AF6BE
:103B5C00AA21502311609620A362FDF71FFB01F0F0
:103B6C00EBFE074A074912880023A3620B80E2622E
:103B7C0010BD00BF002C01402D060020003000407D
:103B8C0004000020840500202DE9F041154D41F280
:103B9C008733EB6272B6144BDFF850801B78144FEE
:103BAC00EB63C5E90D3377244AF6AA26A7FB04304C
:103BBC000009C8F8006001F0FDFE63100A33AB6227
:103BCC000A20023CFDF7EAFA631CEFD101F0B4FEC7
:103BDC00084A094912880023AB620B80EA6262B67C
:103BEC00BDE8F081002C01402D0600200030004083
:103BFC00CDCCCCCC0400002084050020914B924A03
:103C0C00B3F87CC018882DE9F04FACEB0001158897
:103C1C008E4C89B24A098D4287B02180628080F037
:103C2C00E9808B4D2D888D4240F2E4805968DFF895
:103C3C0024820F1AD3E90201BFB2081A80B2BA4229
:103C4C002CBF0027012782422CBF002101210491A7
:103C5C00A160D3E90451A1EB050ED3E90651A1EB08
:103C6C00050AD3E908511FFA8EFE1FFA8AFA72452B
:103C7C00A1EB050189B22CBF4FF0000E4FF0010EE5
:103C8C0052452CBF4FF0000A4FF0010A8A422CBF5C
:103C9C000021012103916161D3E90A51491B89B2C9
:103CAC008A42D3E90C51A1EB050189B22CBF00204B
:103CBC0001208A422CBF002501250195E561D3E93D
:103CCC000E51491B89B28A42D3E91051A1EB05016F
:103CDC0089B22CBF002601268A422CBF4FF0000B64
:103CEC004FF0010B0290A061059626626760C4F844
:103CFC000CE0C4F810A0C4F824B0D3E912514D1B49
:103D0C00D3E914618E1B0021A8F80010D3E91A0125
:103D1C00ADB2B6B2AA42A1EB000189B22CBF00250C
:103D2C000125B2422CBF002601268A422CBF00215D
:103D3C0001214FEA8108A163D3E91691A1EB09098E
:103D4C00D3E918011FFA89F9091A89B24A452CBF1F
:103D5C004FF000094FF001098A422CBF00210121CC
:103D6C0048EAC1086163996F0298C4F83090ACEBD3
:103D7C00010189B28A422CBF0021012148EA0108C5
:103D8C002164D3E91C31CB1A9BB29A422CBF00237D
:103D9C000123E36348EA4308049B2F49A56243408F
:103DAC006B409A00039B0598E6627B408BEA030309
:103DBC0042EAC3038AEA000289EA0209019A43EA49
:103DCC00090382EA0E0986EA090943EA49090B78D4
:103DDC009BB1224B1B781BB1C8F10F085FFA88F816
:103DEC00C8453DD0B4F8543000220133A4F8543007
:103DFC0084F8482007B0BDE8F08F184B1A78002AD9
:103E0C00E8D1019301F00EFD019B134948B194F8E0
:103E1C0044200132D2B2642A84F8442084BF0122A7
:103E2C001A70D4E90172049262690392A269029237
:103E3C00E2690192226AE66A0592D4E903EAD4E9BE
:103E4C0009B5C7E740070020F40500203006002024
:103E5C00C0030020840500204C050020950500209F
:103E6C00B4F8463084480133A4F84630236B002262
:103E7C00012B028004BF814A1370049B039A5B02DE
:103E8C0043EA8723334343EA0E2343EACA1343EA44
:103E9C008213029A43EA4213019A43EA0213059AE7
:103EAC0043EAC20394F8482043EA8B0343EA4505EE
:103EBC00E2B92F2D2EDD94F84D30002B50D1704EE1
:103ECC003578002D96D06F4B1B78002B92D10B7848
:103EDC00002B8FD094F85030AB4249D0052D84F88C
:103EEC00505050D9012384F84E3083E7012A31D049
:103EFC00022A29D0032A7FF47DAF252D7FF47AAFD7
:103F0C006149B4F84A2094F84C008854002384F892
:103F1C0048306FE76B1E2E2B05D85C4B584E1A8021
:103F2C00EDB23570CFE7002DC9D194F84F30574919
:103F3C00534A012B4FF0000308BF84F84D500B80FF
:103F4C00137084F84E3055E7032384F84C5084F8F2
:103F5C0048304FE70223A4F84A5084F8483049E728
:103F6C004A49474B84F84E20ADB20D801A7041E798
:103F7C00052D08D994F84E300133DBB2052B84F8AB
:103F8C004E307FF637AF0023013D84F84E30232DA1
:103F9C0016D8DFE805F0126C6864605C554E4A4632
:103FAC00153E322B1515151515241F151515151540
:103FBC001515151515151515151B354B01221A70F0
:103FCC00344A317811700023337013E7012384F8DD
:103FDC004830F5E72C4A304B527C1A70F0E72A4BEC
:103FEC002D4A5B7CC3F101031370E9E70022012326
:103FFC0084F8512084F85330E2E794F84F300122D2
:10400C00934284F8512084F85220D9D184F84D3051
:10401C00D6E7FDF70DFB1C4B1D4A5B7C013313707F
:10402C00CEE7194B01229A74CAE7174B00229A74F7
:10403C00C6E71549184B0120002248741A70BFE7D7
:10404C001149154B0020012248741A70B8E7134B24
:10405C0001221A70B4E70E4B05221A70B0E70C4B14
:10406C0004221A70ACE70A4B03221A70A8E7084B1B
:10407C0002221A70A4E700BF840500207A050020F4
:10408C00B005002034050020CC03002036050020AC
:10409C0052050020B1050020540000209A05002094
:1040AC0030B5834D95F85130002B37D195F85230FF
:1040BC00002B3ED095F85330002285F85220002B6F
:1040CC0000F0C08000237B4A85F853304EF6F17324
:1040DC00012185F85E107849784891F800E06B660C
:1040EC0005EB8E03AA6600EB8E0080221A67114640
:1040FC00043013224FF0010CAC6E0CFA02F3234087
:10410C00D34083EAD111013AC901531C40F8041F72
:10411C00F2D105EB8E050023EB6630BD95F85E40C1
:10412C00002C49D095F85230002285F85E20002BE7
:10413C00C0D195F85330002BC4D1614B1B78002BA8
:10414C0000F08480C30B024640F082808313012B65
:10415C0000F0A3804313012B00F0A1800313012B6B
:10416C0000F09980C312012B00F09F808312012B69
:10417C0000F099804312012B00F0938000232B66F2
:10418C00030A83EA10134340DB4303F00F0343EAB3
:10419C0002134C49181303F00F02085C8A5C42EAC4
:1041AC00C032C3F30320085C42EA8022C3F303103D
:1041BC00095C42EA41128EE7B5F85C30B5F85A203A
:1041CC00B5F8581001339BB20132013192B289B269
:1041DC00272BA5F85C30A5F85A20A5F8581040D824
:1041EC00C72A4DD9384A394B1188A5F85A40A3FB38
:1041FC000131C1F3C70141F4806195F85230002BB5
:10420C007FF458AF95F85330002B7FF45BAF0A0A5C
:10421C0082EA11124A40D2432A4802F00F02C1F33B
:10422C00132442EA0113045D825C42EAC432C1F3F6
:10423C00031401F00F01045D415C42EA842242EA5E
:10424C00411245E7224A4EF2010341E74FF6FF7255
:10425C000F21083942FA01F343EA4122296690B250
:10426C008EE71C4B194AB3F90030A5F85C4082FB71
:10427C000312D917C1EB6211C9B241F4C061BCE79A
:10428C00C7297FF613AF144BA5F858401988C9B24B
:10429C0041F40071B1E70C21DBE70E21D9E70D21C8
:1042AC00D7E70921D5E70A21D3E70B21D1E700BFD6
:1042BC0030060020FB3D0700C90300209C060020AF
:1042CC003405002010630008760500201F85EB5193
:1042DC003B6707007C05002096050020002103E0C9
:1042EC000B4B5B58435004310A480B4B42189A4213
:1042FC00F6D30A4A02E0002342F8043B084B9A42E8
:10430C00F9D300F0CBFE01F0C5FFFEF721FB70479F
:10431C006063000800000020CC030020CC030020C8
:10432C0060080020FEE70000014BD860704700BF1A
:10433C0000200240024B0349034A59605A607047FF
:10434C000020024023016745AB89EFCD024A136977
:10435C0043F0800313617047002002401B4A13692D
:10436C0043F0020313615061136943F0400313617E
:10437C00D368D90704D4D3685B0720D5012011E09A
:10438C004FF08043D168C80712D4D168490713D4C1
:10439C00D268D20603F1FF334CBF02200320002B5E
:1043AC0008BF0420094B1A696FF341021A61704768
:1043BC00013BE7D10420F5E7013B0120EFE7D3688F
:1043CC0013F0100F14BF02200320EBE70020024073
:1043DC00194A136943F0010313610160D368D907CB
:1043EC0004D4D3685B0720D5012011E04FF480136F
:1043FC00D168C80712D4D168490713D4D268D20641
:10440C0003F1FF334CBF02200320002B08BF042014
:10441C00094B1A696FF300021A617047013BE7D12F
:10442C000420F5E7013B0120EFE7D36813F0100FF0
:10443C0014BF02200320EBE70020024008B52E4BEE
:10444C0098421CD02D4B984223D02D4B98422AD009
:10445C002C4B984209D02C4B98422ED02B4B984287
:10446C0035D02B4B98423CD008BD2A48012100F096
:10447C0043FBBDE808402748002100F03DBB26481F
:10448C00012100F039FBBDE808402348002100F071
:10449C0033BB2248012100F02FFBBDE808401F4828
:1044AC00002100F029BB1E48012100F025FBBDE8CE
:1044BC0008401B48002100F01FBB1A48012100F0E6
:1044CC001BFBBDE808401748002100F015BB16483F
:1044DC00012100F011FBBDE808401348002100F059
:1044EC000BBB1248012100F007FBBDE808400F4848
:1044FC00002100F001BB00BF002C01400004004073
:10450C0000100040002000400040014000440140E9
:10451C0000480140080010000B000C0001001000C6
:10452C000400100010000C0011000C0012000C0014
:10453C00036861F3C7130360704700BF062909D8ED
:10454C00DFE801F013080E0809080400C36962F3E0
:10455C00CB23C3617047C36962F3C303C361704764
:10456C00836962F3CB2383617047836962F3C3036E
:10457C0083617047062909D8DFE801F0090E13188A
:10458C001D220400036A62F30C3303627047036A52
:10459C0062F3000303627047036A62F382030362EF
:1045AC007047036A62F3041303627047036A62F391
:1045BC00861303627047036A62F308230362704731
:1045CC00036A62F38A230362704700BF10B4046865
:1045DC000C490022C3B26FF300040460083B026074
:1045EC0042608260C260A2F13332A2FB03231B093A
:1045FC00486810BC9B000F2202FA03F303434B6084
:10460C00704700BF00000240036861F300030360C1
:10461C00704700BF034B1B68034214BF01200020EE
:10462C00704700BF000002400023C0E90033C0E91E
:10463C0002330382704700BF03684BF6EF721340DE
:10464C00036002680B891343036003684A7C62F3BE
:10465C000D3303600368CA7B62F38B23036003682A
:10466C008A7B62F30923036003684A7B62F3C713F6
:10467C00036003680A7B62F3861303600A7C036899
:10468C0062F345130360D1E9002310B44C894460F4
:10469C00826010BCC36070471F4BDB68C3F30223FE
:1046AC0000B5C3F1070EBEF1040F03F1040C28BFD3
:1046BC004FF0040EBCF1060F21D9033B4FF0FF3C29
:1046CC000CFA03FC22EA0C024FF0FF3C0CFA0EFC35
:1046DC0021EA0C019940002841EA020112DB0F4A41
:1046EC0009011318C9B283F800130123410900F022
:1046FC001F0003FA00F042F821005DF804FB0022D1
:10470C001346E1E7064B00F00F0009010344C9B260
:10471C0019765DF804FB00BF00ED00E000E100E05D
:10472C00FCEC00E020B9034BDA6961F30002DA61BA
:10473C00704700BF000001400B88002B43D02DE9CF
:10474C00F0434FF0000E032601251FFA8EFC4FEAB2
:10475C004C0213F0010F06FA02F705FA0CF80EF1F1
:10476C00010E2CD0046824EA070404608C79D0F87C
:10477C000090944044EA09040460446824EA080464
:10478C0044600C79D0F8048004FA0CFC4CEA080460
:10479C004460846824EA07048460CC79D0F808C0AB
:1047AC00944044EA0C048460C46824EA0707C76098
:1047BC0091F805C0C4680CFA02F22243C2605B088F
:1047CC00C3D1BDE8F083704701F007039B00C90813
:1047DC0002FA03F20BD0416A4FF00F0C0CFA03F300
:1047EC0021EA03034362436A1A4342627047016A37
:1047FC004FF00F0C0CFA03F321EA03030362036A74
:10480C001A430262704700BF836861F30003836040
:10481C00704700BF4FF080730360704743680A789D
:10482C0062F30823436083684A7862F34103836030
:10483C0083688A7862F3CB238360CB78C26A013BAE
:10484C0063F31752C2627047836861F30823836075
:10485C00704700BF836843F008038360704700BF54
:10486C008068C0F3C0007047836843F00403836022
:10487C00704700BF8068C0F38000704710B41129E6
:10488C0017D8DFE811F0120079007E008300880051
:10489C008D00920097009C00A100A600AB00B00018
:1048AC00B500BA00BF00C4007400046963F30204CD
:1048BC000461013A0F2A0DD8DFE802F00E13181D1F
:1048CC0022272C31363B40454A4F5408C36A61F3CA
:1048DC00D333C36210BC7047436B61F3040343636F
:1048EC00F8E7436B61F349134363F3E7436B61F3FD
:1048FC008E234363EEE7436B61F3D3334363E9E702
:10490C00436B61F318534363E4E7436B61F35D63FB
:10491C004363DFE7036B61F304030363DAE7036BC1
:10492C0061F349130363D5E7036B61F38E230363D0
:10493C00D0E7036B61F3D3330363CBE7036B61F312
:10494C0018530363C6E7036B61F35D630363C1E74D
:10495C00C36A61F30403C362BCE7C36A61F349131E
:10496C00C362B7E7C36A61F38E23C362B2E7C4685C
:10497C0063F35754C4609CE7046963F3C504046192
:10498C0097E7046963F38814046192E7046963F39D
:10499C004B2404618DE7046963F30E34046188E7EA
:1049AC00046963F3D134046183E7046963F39444C9
:1049BC0004617EE7046963F35754046179E7046981
:1049CC0063F31A64046174E7046963F3DD640461DE
:1049DC006FE7C46863F30204C4606AE7C46863F3F6
:1049EC00C504C46065E7C46863F38814C46060E7F9
:1049FC00C46863F34B24C4605BE7C46863F30E3490
:104A0C00C46056E7C46863F3D134C46051E7C4682A
:104A1C0063F39444C4604CE7836807298CBF43F06C
:104A2C0000736FF359638360836861F3534383604E
:104A3C00836862F314538360704700BF024B9A681B
:104A4C0060F3D7529A60704700240140836861F389
:104A5C0096538360704700BF10B412490B6843F043
:104A6C0001030B600B689B07FCD54B680D4A6FF379
:104A7C0001034B60536813F00C0FC3F38101F9D1A0
:104A8C00136823F0867323F48033136041F610749B
:104A9C004FF480104FF41F035160D462106310BCAC
:104AAC009360704700100240030C03F1804303F540
:104ABC00043300F01F001A68012303FA00F030EAF7
:104ACC0002030CBF01200020704700BF030C03F150
:104ADC00804303F5043301291A6800F01F0006D047
:104AEC00012101FA00F022EA00001860704701FA77
:104AFC0000F0104318607047030C03F1804303F57A
:104B0C00043301291A6800F01F0006D0012101FAB4
:104B1C0000F022EA00001860704701FA00F0104320
:104B2C0018607047042809D8DFE800F0090F151B3E
:104B3C0003000F4B5A6A61F300025A6270470C4B28
:104B4C001A6861F300021A607047094B1A6861F326
:104B5C0010421A607047064B1A6861F318621A60AB
:104B6C007047034B1A6A61F300021A62704700BF68
:104B7C0000100240024B5A6860F307125A607047EB
:104B8C0000100240024B5A6860F30A225A607047C8
:104B9C0000100240024B5A6860F3CD225A607047F5
:104BAC0000100240054B5A6860F38F325A605A6805
:104BBC00C0F3800060F31C725A6070470010024012
:104BCC00134BA0B95A6860F3104284465A60104BDC
:104BDC005A6861F395425A605A68C1F3011060F348
:104BEC005E725A60DA6A6CF31A62DA6270475A685B
:104BFC0042F480325A605A6801280BBF6FF351425D
:104C0C0042F400324FF0020C4FF0000C5A60DEE719
:104C1C0000100240024B5A6860F301025A60704760
:104C2C0000100240024B5868C0F38100704700BF6F
:104C3C000010024038B53F4D6B6813F00C0F044662
:104C4C00C3F3810228D0022A2FD03B4B2360394872
:104C5C003A4A41683A4DC1F30311515CCB40636051
:104C6C004168C1F302211144097C23FA01F1E1608E
:104C7C004168C1F3C221695CCB40A36045684168BF
:104C8C00C5F30070C1F3813141EA80010A44127E00
:104C9C00B3FBF2F3236138BD6B6D9805D5D52B6B47
:104CAC009901D2D5274B2360D1E76968EB6A002BB9
:104CBC00C1F300411DDAEA6AEB6AC2F3031CEA6A2B
:104CCC00C3F3082302F0070269B369681E4811F4A4
:104CDC00003F194908BF08460021A3FB000503FB50
:104CEC0001F10CFA02F20023FCF7EAF9034620600A
:104CFC00ADE76B686A6812F0C04FC3F38343C2F32D
:104D0C0041700CD10F2B0AD0023319B1094A5268E9
:104D1C0092030AD50C4800FB03F3236097E7013399
:104D2C0003EB0013F1E70848D7E7034800FB03F354
:104D3C0023608CE70010024000127A002063000808
:104D4C0030630008006CDC0200093D00012805D02E
:104D5C00054B5A6D6FF305125A657047024A536D35
:104D6C0043F0300353657047001002402DE9F041C9
:104D7C0086B0054601A817461E468846FFF75AFF1F
:104D8C00DDE90334114A954208BF1C4604EB840448
:104D9C006400B4FBF8F10E4CA4FB0134E40804EB02
:104DAC008403A1EB43010429AB6888BF0134A4B28E
:104DBC0064F30F03AB60EB6867F30C33EB602B69A8
:104DCC0066F30D332B6106B0BDE8F081003801406D
:104DDC00CDCCCCCCC36861F34D33C360704700BFFE
:104DEC00C36861F3C303C360704700BFC36861F35A
:104DFC008203C360704700BF436961F3C71343610B
:104E0C00704700BF436961F3C3034361704700BF40
:104E1C00064B0748B3F806C00649074AA0F800C07D
:104E2C0018885B8808801380704700BF3407002007
:104E3C009C050020A00500200805002030B50823A3
:104E4C0087B0002203214FF09040FCF723FA402357
:104E5C00002203214FF09040FCF71CFA01214FF483
:104E6C00A010FFF733FE3348334CFFF7AFFB01A81C
:104E7C00FFF7DAFB314B324A2E48019301A940F27D
:104E8C0001234FF480250492ADF81430CDE902458E
:104E9C00FFF7D2FB27480121FFF7B6FB0121294878
:104EAC00FFF714FE0720FFF77DFE6846FFF7B2FC04
:104EBC00254B264800936946FFF7B0FC2348032393
:104ECC0001220621FFF7DAFC032319461F480222B0
:104EDC00FFF7D4FC03231A461C481121FFF7CEFC24
:104EEC000723042210211948FFF7C8FC0120FFF703
:104EFC00A5FD012215480721FFF78EFD134801215E
:104F0C00FFF7A2FC11480121FFF77EFC0F48FFF7C9
:104F1C00A1FC0E48FFF7A4FC0028FAD10B480B4C5F
:104F2C00FFF7A2FC2046FFF7A5FC0028FAD107B03A
:104F3C0030BD00BF08000240340700204C24014063
:104F4C0000010101090018000100000400240140C7
:104F5C0048F2E80303FB00F00028B8BF00F6FF702E
:104F6C00054B0013C0F5485083FB0023C017A0EB82
:104F7C00E300193000B27047310CC3302DE9F04317
:104F8C000029B4BFCE1C0E4626F00303073383B0B2
:104F9C0023F0070300AFADEB030DB6106D4688464A
:104FAC008146144600213246284601F097F9B8F1A3
:104FBC00030F17DD4846291F0022837890F80380E1
:104FCC0090F800E090F801C01B0443EA086343EA40
:104FDC000E03013243EA0C23964241F8043F00F1E0
:104FEC000400EADC3E60FFF7A5F9C4F30903EBB15A
:104FFC0000237B607B683A689A4211D978687B6899
:10500C0004EB800055F82310FFF7E2F90320FFF7BB
:10501C008BF97B6801337B607A683B689A42EDD3ED
:10502C00FFF794F90C37BD46BDE8F0832046FFF737
:10503C0095F9DDE7002A30DD531E072B10B501F181
:10504C00010421D9031B022B1ED922F0030E8E441E
:10505C000B46441AD3F800C044F803C0043373451C
:10506C00F8D1940722F003030DD0CC5CC4545C1C23
:10507C00A24208DD023311F804C000F804C09A42C1
:10508C0001DDCA5CC25410BD431E1A44201AC15C17
:10509C0003F8011F9342FAD110BD704730B4144984
:1050AC000B6843F001030B600B689B07FCD54B6846
:1050BC000F4A6FF301034B60536813F00C0FC3F3EB
:1050CC008101F9D113680B480B4C23F0867323F440
:1050DC008033136041F610754FF480135160D56224
:1050EC0013634FF41F039360846030BC704700BFA0
:1050FC000010024000ED00E00010000810B5FFF7B2
:10510C0091FD60B1022816D02C482D4B2D495B68BF
:10511C002D4AC3F30313CB5CD840106010BD284B51
:10512C005A6D9205F0D51A6B244B284812F0007F6B
:10513C0008BF1846E9E7224B5968DA6A002AC1F31E
:10514C0000411CDAD86ADC6ADA6AC0F3031EC4F3C5
:10515C00082402F0070259B35B681D4813F4003FA2
:10516C00164B4FF0000108BF18460EFA02F200234E
:10517C00A4FB000E04FB01F1FBF7A2FFC5E7586886
:10518C005B6813F0C04FC0F38340C3F341720BD183
:10519C000F2809D0023019B1094B5B689B0309D564
:1051AC000B4B03FB00F0B0E7013000EB0210F2E711
:1051BC000748DAE7014B03FB00F0A6E700127A0080
:1051CC000010024040630008C4030020006CDC02A5
:1051DC0000093D0062B670471C4B40F2531210B5EB
:1051EC001A60FFF739FC01210020FFF79BFC01201E
:1051FC00FFF75AFC01280446F9D100201D21FFF7C6
:10520C00DFFC21460220FFF78DFC1920FFF74CFC38
:10521C0001280446F9D10020FFF7ACFC0020FFF771
:10522C00B9FC0020FFF7AEFC2046FFF78FFD0220F3
:10523C00FFF7F0FCFFF7F6FC0228FBD10020FFF78C
:10524C0085FDBDE81040FFF759BF00BF00200240AC
:10525C00084B10B44CF6CC4245F255541C6003205C
:10526C001A604FF47A614AF6AA22586010BC996011
:10527C001A6070470030004038B53F483F4C012160
:10528C00FFF724FC0025682341F2873146F66802BB
:10529C00E1622046A5622946A261E3610122FFF783
:1052AC004DF9204601220221FFF748F90122204640
:1052BC000421FFF743F920460121FFF739F9636C0C
:1052CC002F48232262F3070363640121FFF7FEFBDF
:1052DC002C4C2D480121FFF7F9FB022319462A46D5
:1052EC002046FBF7D7FF2A46204601230221FBF775
:1052FC00D1FF80232A4602214FF09040FBF7CAFFD2
:10530C00204602220121FFF75FFA2946204602229D
:10531C00FFF75AFA022207214FF09040FFF754FA98
:10532C002A464FF4806302214FF09040FBF7B2FF06
:10533C002A464FF4007302214FF09040FBF7AAFF6E
:10534C004FF480732A4602214FF09040FBF7A2FFE6
:10535C0002220A214FF09040FFF736FA022209216F
:10536C004FF09040FFF730FABDE838400222082198
:10537C004FF09040FFF728BA0B001800002C0140AA
:10538C001100140000040048120014002DE9F84F1D
:10539C004B4CFFF721FF102601214FF4A010FFF713
:1053AC0095FB84F80B634FF40068C4F80080FFF79A
:1053BC0063FF44480121FFF789FB434B43484FF6F9
:1053CC00FF774FF03B0ADF620121C3F828A0FFF7FB
:1053DC007DFB3F4B32224FF0770BDA62C3F828B0DB
:1053EC00302384F813334FF400232360DFF8E49068
:1053FC0001214846FFF76AFB01214FF4C010FFF76B
:10540C0065FB00250223002203214FF09040FBF79F
:10541C0041FF20232A4603214FF09040FBF73AFF2F
:10542C0084F80C534FF48053236001212846FFF776
:10543C0079F929480121FFF749FB284B2848DF62FD
:10544C00C3F828B01A6842F080021A600121FFF7F5
:10545C003DFB244B4FF4FA72DA62C3F828A084F8AF
:10546C0015534FF40013236001214846FFF72EFB20
:10547C001D480121FFF72AFB2A46042302214FF085
:10548C009040FBF707FF01214FF4A010FFF71EFB24
:10549C00164B40F68A129A6584F80B63C4F80080A8
:1054AC00A3F54043DF629E621A6842F080021A60E4
:1054BC001A6842F001021A60BDE8F84F00F0C4B857
:1054CC0000E100E004001C000010004008001C007B
:1054DC000020004011001400120018000048014088
:1054EC001100180000440140100018000000024098
:1054FC00014B5863704700BF002C0140014B98636F
:10550C00704700BF002C0140014BD863704700BFAF
:10551C00002C0140024A536943F001035361704768
:10552C00002C0140024B0022DA625A62704700BF25
:10553C000040014010B5384C012220460021FFF7F5
:10554C0019F8204601220221FFF714F82046012207
:10555C000421FFF70FF8012211462046FFF70AF845
:10556C00204601220321FFF705F8204601220521E0
:10557C00FFF700F82268294B294842F0010222600B
:10558C00626C42F400426264626942F00102626140
:10559C001968244A41F001011960596941F001016F
:1055AC005961D96821F00101D960016841F001010C
:1055BC000160116841F0010111605169A3F592334A
:1055CC0041F0010151611A6842F001021A605A69F6
:1055DC0042F001025A61DA6842F0010204F5A0546B
:1055EC00DA60FFF72BFC012200212046FEF7C2FFF8
:1055FC0023680D4A43F001032021236082F807132E
:10560C008023136002F1C04202F50C52136843F47C
:10561C000043136010BD00BF002C0140004401404A
:10562C00004801400010004000E100E0054BDA6941
:10563C006FF30002DA611862DA6942F00102DA6192
:10564C00704700BF0000024030B52B482B4D2C4C4E
:10565C0089B00121FFF73AFA2A480121FFF736FAFF
:10566C0001214FF4A010FFF731FA274B01A928466E
:10567C004022CDE90123FFF75FF8002206212846DE
:10568C00FFF7A2F82046FEF7A1FF03A8FEF7CCFF18
:10569C001E4A1F4B2046CDE903321E4C1E4A0025E4
:1056AC0003A94FF48073CDE90523ADF81C50FEF728
:1056BC00C3FF2B462A4620464FF4E131FFF756FB39
:1056CC0020460121FFF78CFB20460121FFF78EFBC2
:1056DC0020460121FFF796FB20460121FFF78CFBAA
:1056EC0020460121FFF776FB2A4603210A20FEF70C
:1056FC00D3FF09B030BD00BF0E00180000040048F5
:10570C001C0002401200140000010201FC050020E4
:10571C0004380140003801401000310038B5164DF6
:10572C00164CAB6DAB652046FEF788FE144B412141
:10573C000B22A16122621A78A2624FF6FF73E36218
:10574C006269104B002142F00102626103F8041BF4
:10575C000D4A61622A660D4A6B661378EB65E36845
:10576C0043F40073E360236843F0010340F68B12AB
:10577C002360AA6538BD00BF000002400040014014
:10578C00C80300203C07002034400140BE03002029
:10579C0038B51D4D1D4CAB6D43F01003AB65204669
:1057AC00FEF74CFE60210323194AA1612362127893
:1057BC00184BA2624C210122E1621A7063691649EE
:1057CC00164A43F001036361154B29666A665B78E0
:1057DC001733EB65AB6D43F00203AB65AB6D43F078
:1057EC000803AB65AB6D43F00103AB65E36843F4B1
:1057FC000073E360636C43F400436364236843F019
:10580C000103236038BD00BF00000240004001408E
:10581C00EC0500203C070020344001409C06002091
:10582C00C80300204FF09043186900F00400704743
:10583C000423012202214FF09040FBF737BD00BF3B
:10584C00024BD869C0F38070704700BF0000014064
:10585C00044B1A684FF4001122F400121A605961BB
:10586C00704700BF00040140024A136843F4001360
:10587C0013607047000401400F4B1A68B2F5C87FE3
:10588C0004D20E49CA6922F00402CA611B68B3F53E
:10589C00167F04D9094AD36943F00403D361084B3A
:1058AC00084A197800290CBF4FF4001100219160AF
:1058BC001B785B05D3607047100500200000014089
:1058CC00520000200004014070B54FF09044204677
:1058DC004FF4806300220121FBF7DCFC4FF4806065
:1058EC00A0624FF40073204600220121FBF7D2FC8A
:1058FC004FF400700F4DA0624FF4807320460022CD
:10590C000121FBF7C7FC02234FF480701946A062FB
:10591C0000222846FBF7BEFC284601230022022168
:10592C00FBF7B8FC20468023BDE870400022022122
:10593C00FBF7B0BC0004004870B51D4E02230022DA
:10594C00012130464FF09044FBF7A4FC02204FF4A9
:10595C00806300220121B0622046FBF79BFC0123EF
:10596C004FF480601D4619460022A0623046FBF7BA
:10597C0091FC4FF40073002229462046B562FBF7D8
:10598C0089FC4FF4007180230022A1622046294635
:10599C00FBF780FC8023A36200224FF4807329461E
:1059AC002046FBF777FC4FF48073A36270BD00BFF9
:1059BC00000400480138F8B5052847D8DFE810F096
:1059CC00470088000101C90038010600C84E0123B8
:1059DC001D464FF09044194600223046FBF75AFC06
:1059EC004FF40073002229462046B562FBF752FCA7
:1059FC004FF400728023A262294600222046FBF756
:105A0C0049FC8023A36100224FF480732946204671
:105A1C00FBF740FC4FF48072B64BA2621B7803F08C
:105A2C00FF02002B40F03A81022329463046FBF757
:105A3C0031FC0223B3624FF48063002202214FF049
:105A4C009040FBF727FCAC4BAC4ADA61F8BD4FF049
:105A5C0090448023002201212046FBF71BFC802070
:105A6C00A34DA0624FF48073002201212046FBF766
:105A7C0011FC01234FF4807019460022A06201260C
:105A8C002846FBF707FC4FF400730022AE61314649
:105A9C002046FBF7FFFB4FF40072964BA2621B787B
:105AAC0003F0FF02002B40F0078102233146284609
:105ABC00FBF7F0FB0223AB624FF480630022022160
:105ACC004FF09040FBF7E6FB8B4B8D4ADA61F8BD4B
:105ADC00874D4FF0904402230022012128460227D3
:105AEC00FBF7D8FB4FF48063002201212046AF6204
:105AFC00FBF7D0FB01234FF480621946A2622846C3
:105B0C0000220126FBF7C6FB4FF400730022AE61A6
:105B1C0031462046FBF7BEFB4FF40072754BA26278
:105B2C001B7803F0FF02002B40F0D4808023314619
:105B3C002046FBF7AFFB8023A3624FF48073002257
:105B4C0002214FF09040FBF7A5FB6B4B6D4ADA61DD
:105B5C00F8BD4FF090448023002201212046FBF732
:105B6C0099FB8020624DA0624FF4807300220121CA
:105B7C002046FBF78FFB4FF4807102230022A162B9
:105B8C00284601210226FBF785FB4FF48063002297
:105B9C00AE6101212046FBF77DFB4FF48062554B33
:105BAC00A2621B7803F0FF02002B40F08C800123D3
:105BBC0019462846FBF76EFB0123AB624FF40073CA
:105BCC007CE74B4E01231D464FF0904419460022B2
:105BDC003046FBF75FFB4FF400730022294620464A
:105BEC00B562FBF757FB4FF400720223A262294601
:105BFC00002230460227FBF74DFB4FF48063002256
:105C0C00B76129462046FBF745FB4FF48062394BC0
:105C1C00A2621B7803F0FF02002B62D1802329467D
:105C2C002046FBF737FB8023A3624FF4807304E715
:105C3C002F4D4FF0904402230022012128460226CA
:105C4C00FBF728FB4FF48063002201212046AE6253
:105C5C00FBF720FB4FF480628023A262012100221B
:105C6C002046FBF717FB8023A36100224FF48073BF
:105C7C0001212046FBF70EFB4FF480721D4BA262F4
:105C8C001B7803F0FF0283B9012319462846FBF762
:105C9C0001FB0123AB624FF4007350E70223002297
:105CAC0019463046FBF7F6FAC5E6012300223146C9
:105CBC002846FBF7EFFAEEE70223002219462846A6
:105CCC00FBF7E8FAF8E60123002231462846FBF7F9
:105CDC00E1FA73E78023002239462046FBF7DAFA13
:105CEC002BE78023002239462046FBF7D3FA9CE7AA
:105CFC00000400489804002000000140C50000404A
:105D0C00E5000040D500004070B51D4E0223002276
:105D1C00012130464FF09044FBF7BCFA02204FF4BF
:105D2C00806300220121B0612046FBF7B3FA012306
:105D3C004FF480601D4619460022A0623046FBF7E6
:105D4C00A9FA4FF40073002229462046B561FBF7EF
:105D5C00A1FA4FF4007180230022A162204629464B
:105D6C00FBF798FA8023A36100224FF48073294635
:105D7C002046FBF78FFA4FF48073A36270BD00BF0F
:105D8C000004004870B52C4C2378002B3DD12B4DD2
:105D9C0003F0FF02012102232846FBF77BFA0223C2
:105DAC00AB624FF48063002202214FF09040FBF76E
:105DBC0071FA237803F0FF02B3BB204D012319467F
:105DCC002846FBF767FA0123AB624FF400730022FD
:105DDC0002214FF09040FBF75DFA237803F0FF02AD
:105DEC00D3B9802301214FF09040FBF753FA4FF0C9
:105DFC00904380229A62BDE870404FF48073002279
:105E0C0002214FF09040FBF745BA02230B480022C9
:105E1C001946FBF73FFAC4E78023002202214FF01A
:105E2C009040FBF737FAE6E70448012300220221F1
:105E3C00FBF730FAC9E700BF9804002000040048C3
:105E4C00FEE700BFFEE700BFFEE700BFFEE700BFB6
:105E5C00704700BF704700BF704700BF704700BF5E
:105E6C0010B50220FEF7D6FB012800D010BD054C62
:105E7C006060FEF7CDFF0820FEF7CCFB012808BFC1
:105E8C00606010BD0000024010B5194B1C788CB935
:105E9C004FF40030FEF7BEFB01281AD04FF400205F
:105EAC00FEF7B8FB012800D010BD124B4FF4803226
:105EBC005A6010BD0F4B4FF480325A609A6D6FF3DD
:105ECC0000029A65FDF7ACFB0B4B4FF400421A61D4
:105EDC0010BD084B4FF480325A609A6D64F3000287
:105EEC009A65FDF79DFB044B4FF400421A61D5E710
:105EFC008E040020000002400004014008B50D4A49
:105F0C000D4B5B6A1268B3EB520F07D90B4B4FF476
:105F1C0000125A61BDE80840FBF734BCFFF790FC57
:105F2C00074B1B78984200D008BD044B4FF400126D
:105F3C005A6108BD1005002000100040000401400B
:105F4C0052000020024B4FF6FE721A61FCF714BA95
:105F5C0000200040024B00221A61FBF7CBBB00BFB4
:105F6C0000440140034B4FF6FE714FF6FD72196170
:105F7C001A61704700400140704700BF074B1A6917
:105F8C00910744BF4FF6FD721A61044B1A69D20790
:105F9C0044BF4FF6FE721A61704700BF0004004008
:105FAC00064A07491368013313604B691B0400D47C
:105FBC0070474FF400434B61FCF7B8B84008002021
:105FCC00000401402DE9F047089E0D460446884622
:105FDC00002B4DD18A42944668D9B2FA82F252B162
:105FEC0001FA02F3C2F1200120FA01F10CFA02FCD1
:105FFC0041EA030894404FEA1C45210CB8FBF5FE1E
:10600C001FFA8CF705FB1E8341EA03430EFB07F1D5
:10601C0099420BD91CEB03030EF1FF3080F01E816B
:10602C00994240F21B81AEF1020E63445B1AA4B29A
:10603C00B3FBF5F005FB103344EA034400FB07F710
:10604C00A7420AD91CEB040400F1FF3380F008814D
:10605C00A74240F2058164440238E41B40EA0E403A
:10606C0000211EB1D4400023C6E90043BDE8F087EF
:10607C008B4208D9002E00F0EE800021C6E9000505
:10608C000846BDE8F087B3FA83F100294AD1AB4248
:10609C0002D3824200F2F980841A65EB03030120DB
:1060AC009846002EE2D0C6E90048DFE702B9FFDED1
:1060BC00B2FA82F2002A40F09180A1EB0C054FEA73
:1060CC001C471FFA8CFE0121B5FBF7F307FB13509D
:1060DC00250C45EA00450EFB03F0A84208D91CEB41
:1060EC00050503F1FF3802D2A84200F2CB804346EB
:1060FC002D1AA4B2B5FBF7F007FB105544EA054482
:10610C000EFB00FEA64508D91CEB040400F1FF357C
:10611C0002D2A64500F2BB802846A4EB0E0440EA4E
:10612C0003409EE7C1F120078B4022FA07FC4CEAA2
:10613C00030C20FA07F405FA01F31C43FD404FEA67
:10614C001C4900FA01F3B5FBF9F8200C1FFA8CFE80
:10615C0009FB185540EA054508FB0EF0A84202FA67
:10616C0001F20BD91CEB050508F1FF3A80F0888091
:10617C00A84240F28580A8F1020865442D1AA4B209
:10618C00B5FBF9F009FB105544EA054500FB0EFE82
:10619C00AE4508D91CEB050500F1FF346CD2AE45B9
:1061AC006AD90238654440EA0840A0FB0294A5EB8A
:1061BC000E05A542C846A64656D353D05EB1B3EBE6
:1061CC00080265EB0E0505FA07F722FA01F3CD403C
:1061DC001F43C6E900750021BDE8F087C2F120031A
:1061EC0020FA03F10CFA02FC25FA03F395400D4357
:1061FC004FEA1C471FFA8CFEB3FBF7F107FB11307B
:10620C002B0C43EA004301FB0EF0984204FA02F413
:10621C0008D91CEB030301F1FF382FD298422DD97A
:10622C00023963441B1AADB2B3FBF7F007FB103312
:10623C0045EA034500FB0EF3AB4208D91CEB050500
:10624C0000F1FF3816D2AB4214D902386544ED1A6E
:10625C0040EA014138E73146304607E78646E5E635
:10626C001846FAE64B45A9D2B9EB020864EB0C0EC2
:10627C000138A3E74046EAE7204694E74146D1E7D8
:10628C00D0467BE7023B654432E7084609E76444A5
:10629C00023842E770B50D4D0D4C641BA41000265E
:1062AC00A64209D10B4D0C4C00F020F8641BA41035
:1062BC000026A64205D170BD55F8043B984701361F
:1062CC00EEE755F8043B98470136F2E758630008AF
:1062DC0058630008586300085C63000802440346D6
:1062EC00934200D1704703F8011BF9E7F8B500BFE2
:1062FC00F8BC08BC9E467047F8B500BFF8BC08BC9B
:04630C009E467047F2
:10631000191B12131D1516171A090A0B1E0D0E0F45
:106320000000000000000000010203040607080945
:10633000000000000102030402040608020C081019
:106340000000000000000000010203040607080925
:0863500080FCFF7F010000004A
:046358002511000803
:04635C000111000823
:10636000007C00088713871323007800C800D0073B
:106370004C046C07DC0564004A0123009001000016
:10638000000000009001000000000000E803000091
:1063900000000000000000000000000000000000FD
:1063A000204E0000A08601000206100114004600E5
:1063B000DC05010501010100D430000005010A00DF
:1063C000E803000010270000000000000A000000A1
:1063D0000000000064000000000000000000000059
:1063E00000000000000000001027000050C3000063
:1063F000B400D007D0070000B400B700BA00BD0059
:10640000C100C400C700CA00CD00D000D300D60030
:10641000D900DC00E000E300E600E900EC00EF005A
:10642000F200F500F700FA00FD000001030106018B
:1064300009010B010E0111011301160119011B01C4
:106440001E0120012301250128012A012C012F0111
:1064500031013301350138013A013C013E0140016F
:10646000420144014601470149014B014D014E01E2
:1064700050015101530154015601570158015A016D
:106480005B015C015D015E015F0160016101620110
:1064900063016301640165016501660166016701CD
:1064A00067016701680168016801680168016801A6
:1064B000680168016801670167016701660166019B
:1064C00065016501640163016301620161016001AD
:1064D0005F015E015D015C015B015A0158015701DA
:1064E000560154015301510150014E014D014B0120
:1064F0004901470146014401420140013E013C017E
:106500003A0138013501330131012F012C012A01F3
:1065100028012501230120011E011B01190116017B
:10652000130111010E010B01090106010301000114
:10653000FD00FA00F700F500F200EF00EC00E900C2
:10654000E600E300E000DC00D900D600D300D00074
:10655000CD00CA00C700C400C100BD00BA00B7002A
:10656000B400B100AE00AB00A700A400A1009E00E3
:106570009B009800950092008F008C008800850099
:1065800082007F007C0079007600730071006E004D
:106590006B006800650062005F005D005A005700F4
:1065A000550052004F004D004A004800450043008E
:1065B00040003E003C003900370035003300300019
:1065C0002E002C002A002800260024002200210092
:1065D0001F001D001B001A001800170015001400F2
:1065E0001200110010000E000D000C000B000A003C
:1065F000090008000700060005000500040003006C
:106600000300020002000100010001000000000080
:106610000000000000000000000000000000010079
:106620000100010002000200030003000400050055
:10663000050006000700080009000A000B000C0016
:106640000D000E00100011001200140015001700BC
:1066500018001A001B001D001F002100220024004A
:10666000260028002A002C002E00300033003500C0
:10667000370039003C003E00400043004500480020
:106680004A004D004F005200550057005A005D006F
:106690005F006200650068006B006E0071007300AF
:1066A000760079007C007F008200850088008C00E5
:1066B0008F009200950098009B009E00A100A4000E
:1066C000A700AB00AE00B10023001E030300641955
:1066D0000000000001000000000000003200000087
:1066E00000000000000000000000000000000000AA
:1066F0001027000050C30000020023006E00D007E6
:1067000064000500E8030614013278004B00010024
:106710005A005A001E000201FA000000204E20001C
:0C67200050C3000000127A0011070000B6
:107BE0004F444449545952435F46343231000000F7
:107BF0000000000000000000000000000000000085
:04000005080042E9C4
:00000001FF
